{"abi":[{"type":"constructor","inputs":[{"name":"fundsManagerAddress","type":"address","internalType":"address"},{"name":"insuranceManagerAddress","type":"address","internalType":"address"}],"stateMutability":"nonpayable"},{"type":"function","name":"cancelInsurance","inputs":[{"name":"insuranceId","type":"uint256","internalType":"uint256"}],"outputs":[],"stateMutability":"nonpayable"},{"type":"function","name":"createInsurance","inputs":[{"name":"_user","type":"address","internalType":"address"},{"name":"_premiumAmount","type":"uint256","internalType":"uint256"},{"name":"_flightNumber","type":"string","internalType":"string"},{"name":"_airlineCode","type":"string","internalType":"string"},{"name":"_airlineName","type":"string","internalType":"string"},{"name":"_departureAirportCode","type":"string","internalType":"string"},{"name":"_departureAirportName","type":"string","internalType":"string"},{"name":"_departureDateAndTime","type":"string","internalType":"string"},{"name":"_arrivalAirportCode","type":"string","internalType":"string"},{"name":"_arrivalAirportName","type":"string","internalType":"string"},{"name":"_arrivalDateAndTime","type":"string","internalType":"string"}],"outputs":[],"stateMutability":"nonpayable"},{"type":"function","name":"getInsurance","inputs":[{"name":"insuranceId","type":"uint256","internalType":"uint256"}],"outputs":[{"name":"","type":"tuple","internalType":"struct FlightInsurance.Insurance","components":[{"name":"insuranceId","type":"uint256","internalType":"uint256"},{"name":"user","type":"address","internalType":"address"},{"name":"premiumAmount","type":"uint256","internalType":"uint256"},{"name":"ticket","type":"tuple","internalType":"struct FlightInsurance.Flight","components":[{"name":"flightNumber","type":"string","internalType":"string"},{"name":"airline","type":"tuple","internalType":"struct FlightInsurance.Airline","components":[{"name":"code","type":"string","internalType":"string"},{"name":"name","type":"string","internalType":"string"}]},{"name":"departureAirport","type":"tuple","internalType":"struct FlightInsurance.Airport","components":[{"name":"code","type":"string","internalType":"string"},{"name":"name","type":"string","internalType":"string"}]},{"name":"arrivalAirport","type":"tuple","internalType":"struct FlightInsurance.Airport","components":[{"name":"code","type":"string","internalType":"string"},{"name":"name","type":"string","internalType":"string"}]},{"name":"departureDateAndTime","type":"string","internalType":"string"},{"name":"arrivalDateAndTime","type":"string","internalType":"string"}]},{"name":"insuranceStatus","type":"uint8","internalType":"enum FlightInsurance.InsuranceStatus"},{"name":"createdAt","type":"uint256","internalType":"uint256"}]}],"stateMutability":"view"},{"type":"function","name":"getInsuranceCounter","inputs":[],"outputs":[{"name":"","type":"uint256","internalType":"uint256"}],"stateMutability":"view"},{"type":"function","name":"getUserInsurances","inputs":[{"name":"user","type":"address","internalType":"address"}],"outputs":[{"name":"","type":"uint256[]","internalType":"uint256[]"}],"stateMutability":"view"},{"type":"function","name":"initiateClaimRequest","inputs":[{"name":"insuranceId","type":"uint256","internalType":"uint256"}],"outputs":[],"stateMutability":"nonpayable"},{"type":"event","name":"InsuranceClaimed","inputs":[{"name":"insuranceId","type":"uint256","indexed":true,"internalType":"uint256"},{"name":"user","type":"address","indexed":true,"internalType":"address"}],"anonymous":false},{"type":"event","name":"InsuranceCreated","inputs":[{"name":"user","type":"address","indexed":true,"internalType":"address"},{"name":"insurance","type":"tuple","indexed":true,"internalType":"struct FlightInsurance.Insurance","components":[{"name":"insuranceId","type":"uint256","internalType":"uint256"},{"name":"user","type":"address","internalType":"address"},{"name":"premiumAmount","type":"uint256","internalType":"uint256"},{"name":"ticket","type":"tuple","internalType":"struct FlightInsurance.Flight","components":[{"name":"flightNumber","type":"string","internalType":"string"},{"name":"airline","type":"tuple","internalType":"struct FlightInsurance.Airline","components":[{"name":"code","type":"string","internalType":"string"},{"name":"name","type":"string","internalType":"string"}]},{"name":"departureAirport","type":"tuple","internalType":"struct FlightInsurance.Airport","components":[{"name":"code","type":"string","internalType":"string"},{"name":"name","type":"string","internalType":"string"}]},{"name":"arrivalAirport","type":"tuple","internalType":"struct FlightInsurance.Airport","components":[{"name":"code","type":"string","internalType":"string"},{"name":"name","type":"string","internalType":"string"}]},{"name":"departureDateAndTime","type":"string","internalType":"string"},{"name":"arrivalDateAndTime","type":"string","internalType":"string"}]},{"name":"insuranceStatus","type":"uint8","internalType":"enum FlightInsurance.InsuranceStatus"},{"name":"createdAt","type":"uint256","internalType":"uint256"}]}],"anonymous":false},{"type":"event","name":"InsuranceStatusUpdated","inputs":[{"name":"insuranceId","type":"uint256","indexed":false,"internalType":"uint256"},{"name":"status","type":"uint8","indexed":false,"internalType":"enum FlightInsurance.InsuranceStatus"}],"anonymous":false},{"type":"error","name":"FlightInsurance__AmountShouldBeMoreThanZero","inputs":[]},{"type":"error","name":"FlightInsurance__InvalidInsuranceId","inputs":[]},{"type":"error","name":"FlightInsurance__InvalidStatus","inputs":[]},{"type":"error","name":"FlightInsurance__TransferFailed","inputs":[]},{"type":"error","name":"FlightInsurance__Unauthorized","inputs":[]},{"type":"error","name":"ReentrancyGuardReentrantCall","inputs":[]}],"bytecode":{"object":"0x60c060405234801561000f575f80fd5b50604051611c45380380611c4583398101604081905261002e91610068565b60015f81815590556001600160a01b039182166080521660a052610099565b80516001600160a01b0381168114610063575f80fd5b919050565b5f8060408385031215610079575f80fd5b6100828361004d565b91506100906020840161004d565b90509250929050565b60805160a051611b846100c15f395f61114701525f81816103730152610b020152611b845ff3fe608060405234801561000f575f80fd5b5060043610610060575f3560e01c80633061c22814610064578063323dcff71461007a57806385fae6021461008f5780638b958c01146100af578063b5c17050146100c2578063b7c3b2c8146100e2575b5f80fd5b6001546040519081526020015b60405180910390f35b61008d6100883660046113f9565b6100f5565b005b6100a261009d3660046115a1565b610441565b6040516100719190611650565b61008d6100bd3660046115a1565b610a2a565b6100d56100d0366004611761565b610bcc565b6040516100719190611781565b61008d6100f03660046115a1565b610c35565b895f81116101165760405163bd9ceb7b60e01b815260040160405180910390fd5b61011e611250565b600180545f918261012e836117d7565b9190505590506040518060c001604052808281526020018e6001600160a01b031681526020018d81526020016040518060c001604052808e815260200160405180604001604052808f81526020018e815250815260200160405180604001604052808d81526020018c815250815260200160405180604001604052808a81526020018981525081526020018981526020018681525081526020015f60038111156101da576101da61161c565b815242602091820152600180545f9081526002808452604091829020855181559385015192840180546001600160a01b0319166001600160a01b039094169390931790925583015190820155606082015180516003830190819061023e9082611873565b5060208201518051600183019081906102579082611873565b506020820151600182019061026c9082611873565b50505060408201518051600383019081906102879082611873565b506020820151600182019061029c9082611873565b50505060608201518051600583019081906102b79082611873565b50602082015160018201906102cc9082611873565b505050608082015160078201906102e39082611873565b5060a082015160088201906102f89082611873565b5050506080820151600c8201805460ff1916600183600381111561031e5761031e61161c565b021790555060a09190910151600d909101556001600160a01b03808e165f818152600360209081526040808320805460018101825590845291909220018490555163731a43f960e01b815260048101919091527f00000000000000000000000000000000000000000000000000000000000000009091169063731a43f9908e906024015f604051808303818588803b1580156103b8575f80fd5b505af11580156103ca573d5f803e3d5ffd5b505050505060025f60015481526020019081526020015f206040516103ef91906119ac565b604051908190038120906001600160a01b038f16907ffed5f255c50a74bef22d61651b1ed174be8cab67f4231314fa925315c491965e905f90a35061043360015f55565b505050505050505050505050565b610449611278565b5f82815260026020818152604092839020835160c080820186528254825260018301546001600160a01b0316938201939093529281015483850152835191820190935260038301805492939260608501929190829082906104a9906117ef565b80601f01602080910402602001604051908101604052809291908181526020018280546104d5906117ef565b80156105205780601f106104f757610100808354040283529160200191610520565b820191905f5260205f20905b81548152906001019060200180831161050357829003601f168201915b50505050508152602001600182016040518060400160405290815f82018054610548906117ef565b80601f0160208091040260200160405190810160405280929190818152602001828054610574906117ef565b80156105bf5780601f10610596576101008083540402835291602001916105bf565b820191905f5260205f20905b8154815290600101906020018083116105a257829003601f168201915b505050505081526020016001820180546105d8906117ef565b80601f0160208091040260200160405190810160405280929190818152602001828054610604906117ef565b801561064f5780601f106106265761010080835404028352916020019161064f565b820191905f5260205f20905b81548152906001019060200180831161063257829003601f168201915b5050505050815250508152602001600382016040518060400160405290815f8201805461067b906117ef565b80601f01602080910402602001604051908101604052809291908181526020018280546106a7906117ef565b80156106f25780601f106106c9576101008083540402835291602001916106f2565b820191905f5260205f20905b8154815290600101906020018083116106d557829003601f168201915b5050505050815260200160018201805461070b906117ef565b80601f0160208091040260200160405190810160405280929190818152602001828054610737906117ef565b80156107825780601f1061075957610100808354040283529160200191610782565b820191905f5260205f20905b81548152906001019060200180831161076557829003601f168201915b5050505050815250508152602001600582016040518060400160405290815f820180546107ae906117ef565b80601f01602080910402602001604051908101604052809291908181526020018280546107da906117ef565b80156108255780601f106107fc57610100808354040283529160200191610825565b820191905f5260205f20905b81548152906001019060200180831161080857829003601f168201915b5050505050815260200160018201805461083e906117ef565b80601f016020809104026020016040519081016040528092919081815260200182805461086a906117ef565b80156108b55780601f1061088c576101008083540402835291602001916108b5565b820191905f5260205f20905b81548152906001019060200180831161089857829003601f168201915b50505050508152505081526020016007820180546108d2906117ef565b80601f01602080910402602001604051908101604052809291908181526020018280546108fe906117ef565b80156109495780601f1061092057610100808354040283529160200191610949565b820191905f5260205f20905b81548152906001019060200180831161092c57829003601f168201915b50505050508152602001600882018054610962906117ef565b80601f016020809104026020016040519081016040528092919081815260200182805461098e906117ef565b80156109d95780601f106109b0576101008083540402835291602001916109d9565b820191905f5260205f20905b8154815290600101906020018083116109bc57829003601f168201915b505050919092525050508152600c82015460209091019060ff166003811115610a0457610a0461161c565b6003811115610a1557610a1561161c565b8152602001600d820154815250509050919050565b5f81815260026020526040812054829103610a585760405163b50e8d8560e01b815260040160405180910390fd5b5f8281526002602052604090206001015482906001600160a01b03163314610a9357604051632b95078b60e21b815260040160405180910390fd5b5f838152600260205260408120600c015460ff166003811115610ab857610ab861161c565b14610ad6576040516303e7bbb960e21b815260040160405180910390fd5b5f838152600260208190526040909120600c8101805460ff191660011790558101546001600160a01b037f000000000000000000000000000000000000000000000000000000000000000016916350802e3f913391610b3491611a5e565b6040516001600160e01b031960e085901b1681526001600160a01b03909216600483015260248201526044015f604051808303815f87803b158015610b77575f80fd5b505af1158015610b89573d5f803e3d5ffd5b505050507f5d248812d461c681e0d21357859b8ce548d99f831310c8dd547a39151dbfa917836001604051610bbf929190611a7d565b60405180910390a1505050565b6001600160a01b0381165f90815260036020908152604091829020805483518184028101840190945280845260609392830182828015610c2957602002820191905f5260205f20905b815481526020019060010190808311610c15575b50505050509050919050565b5f81815260026020526040812054829103610c635760405163b50e8d8560e01b815260040160405180910390fd5b5f8281526002602052604090206001015482906001600160a01b03163314610c9e57604051632b95078b60e21b815260040160405180910390fd5b5f838152600260205260408120600c015460ff166003811115610cc357610cc361161c565b14610ce1576040516303e7bbb960e21b815260040160405180910390fd5b5f838152600260205260409020600d0154610d009062278d0090611a91565b421115610d78575f8381526002602052604090819020600c01805460ff1916600390811790915590517f5d248812d461c681e0d21357859b8ce548d99f831310c8dd547a39151dbfa91791610d5791869190611a7d565b60405180910390a16040516303e7bbb960e21b815260040160405180910390fd5b60408051600580825260c082019092525f91816020015b6060815260200190600190039081610d8f5750505f858152600260205260409020600301805491925090610dc2906117ef565b80601f0160208091040260200160405190810160405280929190818152602001828054610dee906117ef565b8015610e395780601f10610e1057610100808354040283529160200191610e39565b820191905f5260205f20905b815481529060010190602001808311610e1c57829003601f168201915b5050505050815f81518110610e5057610e50611aaa565b6020908102919091018101919091525f8581526002909152604090206007018054610e7a906117ef565b80601f0160208091040260200160405190810160405280929190818152602001828054610ea6906117ef565b8015610ef15780601f10610ec857610100808354040283529160200191610ef1565b820191905f5260205f20905b815481529060010190602001808311610ed457829003601f168201915b505050505081600181518110610f0957610f09611aaa565b602002602001018190525060025f8581526020019081526020015f206003016007018054610f36906117ef565b80601f0160208091040260200160405190810160405280929190818152602001828054610f62906117ef565b8015610fad5780601f10610f8457610100808354040283529160200191610fad565b820191905f5260205f20905b815481529060010190602001808311610f9057829003601f168201915b505050505081600281518110610fc557610fc5611aaa565b6020908102919091018101919091525f8581526002909152604090206009018054610fef906117ef565b80601f016020809104026020016040519081016040528092919081815260200182805461101b906117ef565b80156110665780601f1061103d57610100808354040283529160200191611066565b820191905f5260205f20905b81548152906001019060200180831161104957829003601f168201915b50505050508160038151811061107e5761107e611aaa565b602002602001018190525060025f8581526020019081526020015f2060030160080180546110ab906117ef565b80601f01602080910402602001604051908101604052809291908181526020018280546110d7906117ef565b80156111225780601f106110f957610100808354040283529160200191611122565b820191905f5260205f20905b81548152906001019060200180831161110557829003601f168201915b50505050508160048151811061113a5761113a611aaa565b60200260200101819052507f00000000000000000000000000000000000000000000000000000000000000006001600160a01b031663fc201a673360025f8881526020019081526020015f2060020154846040518463ffffffff1660e01b81526004016111a993929190611abe565b6020604051808303815f875af11580156111c5573d5f803e3d5ffd5b505050506040513d601f19601f820116820180604052508101906111e99190611b37565b50600180545f908152600260208190526040808320600c01805460ff19169092179091558682528082209092015491516001600160a01b039092169186917f80b194524b4503db42e8adbbccaafd433693800566f2892d5c2fd75347cf5f5b91a350505050565b60025f540361127257604051633ee5aeb560e01b815260040160405180910390fd5b60025f55565b6040518060c001604052805f81526020015f6001600160a01b031681526020015f81526020016112a66112b8565b81526020015f81526020015f81525090565b6040518060c00160405280606081526020016112e7604051806040016040528060608152602001606081525090565b8152602001611309604051806040016040528060608152602001606081525090565b815260200161132b604051806040016040528060608152602001606081525090565b815260200160608152602001606081525090565b80356001600160a01b0381168114611355575f80fd5b919050565b634e487b7160e01b5f52604160045260245ffd5b5f82601f83011261137d575f80fd5b813567ffffffffffffffff8111156113975761139761135a565b604051601f8201601f19908116603f0116810167ffffffffffffffff811182821017156113c6576113c661135a565b6040528181528382016020018510156113dd575f80fd5b816020850160208301375f918101602001919091529392505050565b5f805f805f805f805f805f6101608c8e031215611414575f80fd5b61141d8c61133f565b9a5060208c0135995060408c013567ffffffffffffffff81111561143f575f80fd5b61144b8e828f0161136e565b99505060608c013567ffffffffffffffff811115611467575f80fd5b6114738e828f0161136e565b98505060808c013567ffffffffffffffff81111561148f575f80fd5b61149b8e828f0161136e565b97505060a08c013567ffffffffffffffff8111156114b7575f80fd5b6114c38e828f0161136e565b96505060c08c013567ffffffffffffffff8111156114df575f80fd5b6114eb8e828f0161136e565b95505060e08c013567ffffffffffffffff811115611507575f80fd5b6115138e828f0161136e565b9450506101008c013567ffffffffffffffff811115611530575f80fd5b61153c8e828f0161136e565b9350506101208c013567ffffffffffffffff811115611559575f80fd5b6115658e828f0161136e565b9250506101408c013567ffffffffffffffff811115611582575f80fd5b61158e8e828f0161136e565b9150509295989b509295989b9093969950565b5f602082840312156115b1575f80fd5b5035919050565b5f81518084528060208401602086015e5f602082860101526020601f19601f83011685010191505092915050565b5f8151604084526115fa60408501826115b8565b90506020830151848203602086015261161382826115b8565b95945050505050565b634e487b7160e01b5f52602160045260245ffd5b6004811061164c57634e487b7160e01b5f52602160045260245ffd5b9052565b602081528151602082015260018060a01b036020830151166040820152604082015160608201525f606083015160c06080840152805160c060e085015261169b6101a08501826115b8565b9050602082015160df19858303016101008601526116b982826115e6565b915050604082015160df19858303016101208601526116d882826115e6565b915050606082015160df19858303016101408601526116f782826115e6565b915050608082015160df198583030161016086015261171682826115b8565b91505060a0820151915060df198482030161018085015261173781836115b8565b915050608084015161174c60a0850182611630565b5060a084015160c08401528091505092915050565b5f60208284031215611771575f80fd5b61177a8261133f565b9392505050565b602080825282518282018190525f918401906040840190835b818110156117b857835183526020938401939092019160010161179a565b509095945050505050565b634e487b7160e01b5f52601160045260245ffd5b5f600182016117e8576117e86117c3565b5060010190565b600181811c9082168061180357607f821691505b60208210810361182157634e487b7160e01b5f52602260045260245ffd5b50919050565b601f82111561186e57805f5260205f20601f840160051c8101602085101561184c5750805b601f840160051c820191505b8181101561186b575f8155600101611858565b50505b505050565b815167ffffffffffffffff81111561188d5761188d61135a565b6118a18161189b84546117ef565b84611827565b6020601f8211600181146118d3575f83156118bc5750848201515b5f19600385901b1c1916600184901b17845561186b565b5f84815260208120601f198516915b8281101561190257878501518255602094850194600190920191016118e2565b508482101561191f57868401515f19600387901b60f8161c191681555b50505050600190811b01905550565b5f815461193a816117ef565b600182168015611951576001811461196757611992565b60ff198316865281151560051b86019350611992565b845f5260205f205f5b8381101561198c57815488820152600190910190602001611970565b87019450505b50505092915050565b6119a58282611630565b5060200190565b8154815260018201546001600160a01b03166020820152600282015460408201525f61177a611a51611a44611a3b611a32611a29611a20611a17611a0e611a056119fc60608d0160038f0161192e565b60048e0161192e565b60058d0161192e565b60068c0161192e565b60078b0161192e565b60088a0161192e565b6009890161192e565b600a880161192e565b600b870161192e565b600c86015460ff1661199b565b600d850154815260200190565b5f82611a7857634e487b7160e01b5f52601260045260245ffd5b500490565b8281526040810161177a6020830184611630565b80820180821115611aa457611aa46117c3565b92915050565b634e487b7160e01b5f52603260045260245ffd5b5f6060820160018060a01b03861683528460208401526060604084015280845180835260808501915060808160051b8601019250602086015f5b82811015611b2957607f19878603018452611b148583516115b8565b94506020938401939190910190600101611af8565b509298975050505050505050565b5f60208284031215611b47575f80fd5b505191905056fea2646970667358221220c048a64c8666774af12eb4f06b6a9377f526db3376d337fed51843abfde6b6ca64736f6c634300081a0033","linkReferences":{}},"methodIdentifiers":{"cancelInsurance(uint256)":"8b958c01","createInsurance(address,uint256,string,string,string,string,string,string,string,string,string)":"323dcff7","getInsurance(uint256)":"85fae602","getInsuranceCounter()":"3061c228","getUserInsurances(address)":"b5c17050","initiateClaimRequest(uint256)":"b7c3b2c8"},"id":45}